:020000040800F2
:10000000002800209D1B0008651A00086B1A0008D4
:10001000711A0008771A00087D1A00080000000015
:10002000000000000000000000000000831A00082B
:100030008F1A0008000000009B1A0008A71A000889
:10004000E51B0008E51B0008E51B0008E51B000890
:10005000E51B0008E51B0008E51B0008E51B000880
:10006000E51B0008E51B0008E51B0008E51B000870
:10007000E51B0008E51B0008E51B0008E51B000860
:10008000E51B0008E51B0008E51B0008E51B000850
:10009000E51B0008E51B0008E51B0008E51B000840
:1000A000E51B0008E51B0008E51B0008E51B000830
:1000B000B51A0008E51B000800000000E51B000859
:1000C000E51B00080000000000000000E51B000820
:1000D00000000000E51B0008E51B00080000000010
:1000E000E51B0008E51B0008E51B000800000000F8
:1000F0000000000000000000000000000000000000
:0C01000000000000000000005FF808F1A3
:10010C0010B5054C237833B9044B13B10448AFF345
:10011C0000800123237010BD54000020000000005B
:10012C002C32000808B5034B1BB103490348AFF34D
:10013C00008008BD00000000580000202C32000890
:10014C0080B400AF064B1B68012B04D1044B00227A
:10015C001A60012300E000231846BD4680BC70479E
:10016C007000002080B400AF064B1B68012B04D13B
:10017C00044B00221A60012300E000231846BD4600
:10018C0080BC70477400002080B400AF064B1B6825
:10019C00012B04D1044B00221A60012300E0002340
:1001AC001846BD4680BC70477800002080B500AF73
:1001BC00454B5B68444A1360444B1B68424A53608E
:1001CC004FF40071424801F0F3FF03461A463F4BCF
:1001DC001A603D4B1A683C4B5B689A4216D13A4BFD
:1001EC005A683A4B1B689A4210D13A4B1A68374BF3
:1001FC001B689A420AD0354B1B68364A1360334B46
:10020C001B68002B02D1344B01221A60334B5B6804
:10021C00324A1360324B1B68304A53604FF4806192
:10022C002B4801F0C5FF03461A462D4B1A602B4B89
:10023C001A682A4B5B689A4216D1284B5A68284B8D
:10024C001B689A4210D1274B1A68254B1B689A429F
:10025C000AD0234B1B68234A1360214B1B68002BCD
:10026C0002D1214B01221A60204B5B681F4A13609C
:10027C001F4B1B681D4A53604FF40061144801F07A
:10028C0097FF03461A461A4B1A60184B1A68174BFD
:10029C005B689A4216D1154B5A68154B1B689A42EB
:1002AC0010D1144B1A68124B1B689A420AD0104B8F
:1002BC001B68104A13600E4B1B68002B02D10E4BAF
:1002CC0001221A6000BF80BD000000200800002041
:1002DC00000801400C0000207000002010000020DD
:1002EC00180000201C0000207400002020000020BA
:1002FC00280000202C0000207800002080B500AFE2
:10030C00904B1B78032B00F2948101A252F823F03E
:10031C002D0300087703000863040008710500082A
:10032C00894B1B68012B05D14FF47A7001F01AFC34
:10033C0001F01EFAFFF704FF0346002B00F07B814F
:10034C00804B01221A70FA2001F00CFC7F4B1B68C9
:10035C007F4A1360012220217E4801F040FF0122D8
:10036C0008217C4801F03BFF65E1002240217948DF
:10037C0001F035FF00228021764801F030FF002289
:10038C000421744801F02BFF00220221714801F076
:10039C0026FF714B02221A606D4B1B686F4A82FB61
:1003AC0003129210DB17D31A6B4A5360684B19680F
:1003BC006A4B83FB01239A10CB17D21A13469B006E
:1003CC0013445B00CA1A644B9A6000F065FA5E4BEA
:1003DC001B68012B0AD1FA2001F0C4FB20215D48D7
:1003EC0001F015FF08215B4801F011FFFFF7BAFE81
:1003FC000346002B0BD0564B1B680133544A136039
:10040C00534B1B68632B02DD514B01221A60FFF723
:10041C00BBFE0346002B03D04D4B1B684B4A1360AD
:10042C00FFF78EFE0346002B00F00781454B02229E
:10043C001A70FA2001F096FB494B1B68444A136072
:10044C0001224021434801F0CAFE01220421414807
:10045C0001F0C5FEF1E0002220213E4801F0BFFE74
:10046C00002280213B4801F0BAFE002208213948C5
:10047C0001F0B5FE00220221364801F0B0FE364BE9
:10048C0003221A60324B1B68344A82FB031292100F
:10049C00DB17D31A304A53602D4B19682F4B83FB53
:1004AC0001239A10CB17D21A13469B0013445B00FE
:1004BC00CA1A294B9A6000F0EFF9234B1B68012BE9
:1004CC000AD1FA2001F04EFB4021224801F09FFE98
:1004DC000421204801F09BFEFFF744FE0346002B4D
:1004EC000BD01B4B1B680133194A1360184B1B684C
:1004FC00632B02DD164B01221A60FFF745FE034603
:10050C00002B03D0124B1B68154A1360FFF718FE23
:10051C000346002B00F093800A4B03221A70FA203A
:10052C0001F020FB0E4B1B68094A1360012280214D
:10053C00084801F054FE01220221064801F04FFE4A
:10054C007DE000BFA80000209000002038000020B3
:10055C007C00002000080140800000206766666671
:10056C003400002000222021374801F038FE002200
:10057C004021354801F033FE00220821324801F0B9
:10058C002EFE00220421304801F029FE2F4B0422BC
:10059C001A602F4B1B682F4A82FB03129210DB1739
:1005AC00D31A2A4A53602A4B19682A4B83FB01231E
:1005BC009A10CB17D21A13469B0013445B00CA1A2D
:1005CC00224B9A6000F068F9234B1B68012B0AD16F
:1005DC00FA2001F0C7FA80211B4801F018FE022115
:1005EC00194801F014FEFFF7BDFD0346002B0BD09C
:1005FC00174B1B680133164A1360154B1B68632B92
:10060C0002DD134B01221A60FFF7BEFD0346002BDF
:10061C0003D00F4B1B68114A1360FFF791FD034683
:10062C00002B0ED00E4B00221A700B4B01221A60BD
:10063C0007E000BF06E000BF04E000BF02E000BF1F
:10064C0000E000BF00BF80BD00080140800000201A
:10065C007C00002067666666900000203000002059
:10066C00A800002080B500AF01F0B8FA00F016F831
:10067C0000F050F800F09AF8064802F00DFA4FF42A
:10068C007A7001F06FFA044B00221A70FFF736FEF5
:10069C00FCE700BFAC000020A800002080B590B0A3
:1006AC0000AF07F1180328220021184602F0B0FD14
:1006BC003B1D00221A605A609A60DA601A610223AC
:1006CC00BB610123BB621023FB6200237B6307F138
:1006DC001803184601F0B4FD0346002B01D000F0BE
:1006EC00D5F80F237B600023BB600023FB60002345
:1006FC003B6100237B613B1D0021184602F020F872
:10070C000346002B01D000F0C1F800BF4037BD46B6
:10071C0080BD000080B586B000AF07F10803002251
:10072C001A605A609A60DA603B4600221A605A607E
:10073C001D4B4FF080421A601B4B41F63F725A60C2
:10074C00194B00229A60184B0922DA60164B0022D2
:10075C001A61154B00229A61134802F04DF90346B9
:10076C00002B01D000F092F84FF48053BB6007F1DE
:10077C00080319460C4802F0E3FA0346002B01D09B
:10078C0000F084F800233B6000237B603B46194655
:10079C00054802F0AFFC0346002B01D000F076F8C0
:1007AC0000BF1837BD4680BDAC00002080B586B0B8
:1007BC0000AF07F1080300221A605A609A60DA60F1
:1007CC002F4B9B692E4A43F0040393612C4B9B697E
:1007DC0003F004037B607B68294B9B69284A43F038
:1007EC0008039361264B9B6903F008033B603B684D
:1007FC0000224FF2FE11234801F0F1FC002247F6D3
:10080C00FE71214801F0EBFC4FF2FE13BB6001239B
:10081C00FB6000233B6102237B6107F1080319464F
:10082C00184801F04BFB0123BB600023FB60012344
:10083C003B6107F108031946134801F03FFB47F6EB
:10084C00FE73BB600123FB6000233B6102237B61D1
:10085C0007F1080319460C4801F030FB4FF46063B4
:10086C00BB600023FB6001233B6107F108031946C1
:10087C00044801F023FB00BF1837BD4680BD00BF04
:10088C000010024000080140000C014080B400AF91
:10089C0072B600BFFEE7000080B582B000AF002347
:1008AC007B6001233B60B64B1B68092B00F24E8228
:1008BC0001A252F823F000BFED0800085D09000802
:1008CC00CD0900083D0A0008AD0A00081D0B000800
:1008DC00990B0008090C0008790C0008E90C0008B9
:1008EC007B68DBB21A461021A64801F078FC7B68C5
:1008FC00DBB21A464FF48071A24801F070FC7B68A1
:10090C00DBB21A464FF480519E4801F068FC7B68BC
:10091C00DBB21A464FF400519A4801F060FC7B6838
:10092C00DBB21A464FF48041964801F058FC7B68C4
:10093C00DBB21A464FF40041924801F050FC3B6880
:10094C00DBB21A464FF480418F4801F048FC35E287
:10095C003B68DBB21A4610218A4801F040FC7B68E8
:10096C00DBB21A464FF48071864801F038FC7B6884
:10097C00DBB21A464FF48051824801F030FC3B68E0
:10098C00DBB21A464FF400517E4801F028FC3B685C
:10099C00DBB21A464FF480417A4801F020FC3B68E8
:1009AC00DBB21A464FF40041764801F018FC3B6864
:1009BC00DBB21A464FF48041734801F010FCFDE1A4
:1009CC007B68DBB21A4610216E4801F008FC7B688C
:1009DC00DBB21A464FF480716A4801F000FC3B68A8
:1009EC00DBB21A464FF48051664801F0F8FB7B6885
:1009FC00DBB21A464FF40051624801F0F0FB7B6801
:100A0C00DBB21A464FF480415E4801F0E8FB3B68CC
:100A1C00DBB21A464FF400415A4801F0E0FB7B6808
:100A2C00DBB21A464FF48041574801F0D8FBC5E1C0
:100A3C007B68DBB21A461021524801F0D0FB7B6870
:100A4C00DBB21A464FF480714E4801F0C8FB7B684C
:100A5C00DBB21A464FF480514A4801F0C0FB7B6868
:100A6C00DBB21A464FF40051464801F0B8FB3B6824
:100A7C00DBB21A464FF48041424801F0B0FB3B68B0
:100A8C00DBB21A464FF400413E4801F0A8FB7B68EC
:100A9C00DBB21A464FF480413B4801F0A0FB8DE1DC
:100AAC003B68DBB21A461021364801F098FB7B6894
:100ABC00DBB21A464FF48071324801F090FB7B6830
:100ACC00DBB21A464FF480512E4801F088FB3B688C
:100ADC00DBB21A464FF400512A4801F080FB3B6808
:100AEC00DBB21A464FF48041264801F078FB7B6854
:100AFC00DBB21A464FF40041224801F070FB7B68D0
:100B0C00DBB21A464FF480411F4801F068FB55E1F7
:100B1C007B68DBB21A4610211A4801F060FB3B6877
:100B2C00DBB21A464FF48071164801F058FB7B6813
:100B3C00DBB21A464FF48051124801F050FB7B682F
:100B4C00DBB21A464FF400510E4801F048FB3B68EB
:100B5C00DBB21A464FF480410A4801F040FB7B6837
:100B6C00DBB21A464FF40041064801F038FB7B68B3
:100B7C00DBB21A464FF48041034801F030FB1DE113
:100B8C008000002000080140000C01407B68DBB2B3
:100B9C001A461021B04801F022FB3B68DBB21A4622
:100BAC004FF48071AC4801F01AFB7B68DBB21A463B
:100BBC004FF48051A84801F012FB7B68DBB21A4657
:100BCC004FF40051A44801F00AFB7B68DBB21A46D3
:100BDC004FF48041A04801F002FB7B68DBB21A465F
:100BEC004FF400419C4801F0FAFA7B68DBB21A46DC
:100BFC004FF48041994801F0F2FADFE07B68DBB2F8
:100C0C001A461021944801F0EAFA7B68DBB21A46C6
:100C1C004FF48071904801F0E2FA7B68DBB21A461F
:100C2C004FF480518C4801F0DAFA3B68DBB21A467B
:100C3C004FF40051884801F0D2FA3B68DBB21A46F7
:100C4C004FF48041844801F0CAFA3B68DBB21A4683
:100C5C004FF40041804801F0C2FA3B68DBB21A46FF
:100C6C004FF480417D4801F0BAFAA7E07B68DBB213
:100C7C001A461021784801F0B2FA7B68DBB21A46AA
:100C8C004FF48071744801F0AAFA7B68DBB21A4603
:100C9C004FF48051704801F0A2FA7B68DBB21A461F
:100CAC004FF400516C4801F09AFA7B68DBB21A469B
:100CBC004FF48041684801F092FA7B68DBB21A4627
:100CCC004FF40041644801F08AFA7B68DBB21A46A3
:100CDC004FF48041614801F082FA6FE07B68DBB22F
:100CEC001A4610215C4801F07AFA7B68DBB21A468E
:100CFC004FF48071584801F072FA7B68DBB21A46E7
:100D0C004FF48051544801F06AFA7B68DBB21A4602
:100D1C004FF40051504801F062FA3B68DBB21A46BE
:100D2C004FF480414C4801F05AFA7B68DBB21A460A
:100D3C004FF40041484801F052FA7B68DBB21A4686
:100D4C004FF48041454801F04AFA37E03B68DBB28A
:100D5C001A461021404801F042FA3B68DBB21A46B1
:100D6C004FF480713C4801F03AFA3B68DBB21A460A
:100D7C004FF48051384801F032FA3B68DBB21A4626
:100D8C004FF40051344801F02AFA3B68DBB21A46A2
:100D9C004FF48041304801F022FA3B68DBB21A462E
:100DAC004FF400412C4801F01AFA3B68DBB21A46AA
:100DBC004FF48041294801F012FA00BF284B5B68C0
:100DCC00092B00F2138201A252F823F0010E000845
:100DDC00710E0008D50E0008390F00089D0F000891
:100DEC000110000865100008C91000083111000836
:100DFC00951100087B68DBB21A460121174801F0F7
:100E0C00EEF97B68DBB21A460221144801F0E7F9CF
:100E1C007B68DBB21A460421104801F0E0F97B68CC
:100E2C00DBB21A4608210D4801F0D9F97B68DBB218
:100E3C001A461021094801F0D2F97B68DBB21A4638
:100E4C002021064801F0CBF93B68DBB21A46402161
:100E5C00024801F0C4F9FBE100080140000C01401C
:100E6C00800000203B68DBB21A460121AC4801F03F
:100E7C00B6F97B68DBB21A460221A94801F0AFF93A
:100E8C007B68DBB21A460421A54801F0A8F93B683F
:100E9C00DBB21A460821A24801F0A1F93B68DBB28B
:100EAC001A4610219E4801F09AF93B68DBB21A46AB
:100EBC0020219B4801F093F93B68DBB21A46402194
:100ECC00974801F08CF9C3E17B68DBB21A4601212B
:100EDC00934801F084F97B68DBB21A4602219048F2
:100EEC0001F07DF93B68DBB21A4604218C4801F015
:100EFC0076F97B68DBB21A460821894801F06FF954
:100F0C007B68DBB21A461021854801F068F93B6812
:100F1C00DBB21A462021824801F061F97B68DBB212
:100F2C001A4640217E4801F05AF991E17B68DBB208
:100F3C001A4601217A4801F052F97B68DBB21A4655
:100F4C000221774801F04BF97B68DBB21A46042189
:100F5C00734801F044F97B68DBB21A4608217048EB
:100F6C0001F03DF93B68DBB21A4610216C4801F0E8
:100F7C0036F93B68DBB21A462021694801F02FF99B
:100F8C007B68DBB21A464021654801F028F95FE125
:100F9C003B68DBB21A460121614801F020F97B68FD
:100FAC00DBB21A4602215E4801F019F97B68DBB20C
:100FBC001A4604215A4801F012F93B68DBB21A4672
:100FCC000821574801F00BF93B68DBB21A46102197
:100FDC00534801F004F97B68DBB21A4620215048D3
:100FEC0001F0FDF87B68DBB21A4640214C4801F059
:100FFC00F6F82DE17B68DBB21A460121484801F076
:10100C00EEF83B68DBB21A460221454801F0E7F8DE
:10101C007B68DBB21A460421414801F0E0F87B689A
:10102C00DBB21A4608213E4801F0D9F83B68DBB226
:10103C001A4610213A4801F0D2F87B68DBB21A4606
:10104C002021374801F0CBF87B68DBB21A464021EF
:10105C00334801F0C4F8FBE07B68DBB21A4601218F
:10106C002F4801F0BCF83B68DBB21A4602212C4831
:10107C0001F0B5F87B68DBB21A460421284801F070
:10108C00AEF87B68DBB21A460821254801F0A7F8B8
:10109C007B68DBB21A461021214801F0A0F87B686E
:1010AC00DBB21A4620211E4801F099F87B68DBB2AE
:1010BC001A4640211A4801F092F8C9E07B68DBB26D
:1010CC001A460121164801F08AF87B68DBB21A46F1
:1010DC000221134801F083F87B68DBB21A46042125
:1010EC000F4801F07CF83B68DBB21A4608210C482B
:1010FC0001F075F83B68DBB21A461021084801F084
:10110C006EF83B68DBB21A462021054801F067F8FF
:10111C003B68DBB21A464021014801F060F897E0C9
:10112C00000C01407B68DBB21A460121AA4801F091
:10113C0056F87B68DBB21A460221A74801F04FF83B
:10114C007B68DBB21A460421A34801F048F87B689F
:10115C00DBB21A460821A04801F041F87B68DBB2EB
:10116C001A4610219C4801F03AF87B68DBB21A460B
:10117C002021994801F033F87B68DBB21A464021F4
:10118C00954801F02CF863E07B68DBB21A4601212C
:10119C00914801F024F87B68DBB21A4602218E4894
:1011AC0001F01DF87B68DBB21A4604218A4801F075
:1011BC0016F87B68DBB21A460821874801F00FF855
:1011CC003B68DBB21A461021834801F008F87B68B3
:1011DC00DBB21A462021804801F001F87B68DBB2B3
:1011EC001A4640217C4800F0FAFF31E03B68DBB244
:1011FC001A460121784800F0F2FF3B68DBB21A4630
:10120C000221754800F0EBFF3B68DBB21A46042163
:10121C00714800F0E4FF3B68DBB21A4608216E48C7
:10122C0000F0DDFF3B68DBB21A4610216A4800F083
:10123C00D6FF3B68DBB21A462021674800F0CFFF8F
:10124C003B68DBB21A464021634800F0C8FF00BF80
:10125C00624B9B68092B00F24D8201A252F823F0DD
:10126C00951200080513000875130008ED1300080B
:10127C005D140008CD1400083D150008AD150008DC
:10128C001D160008911600087B68DBB21A468021F7
:10129C00514800F0A4FF7B68DBB21A464FF4807112
:1012AC004D4800F09CFF7B68DBB21A464FF400718E
:1012BC00494800F094FF7B68DBB21A464FF480611A
:1012CC00454800F08CFF7B68DBB21A464FF4006196
:1012DC00414800F084FF7B68DBB21A464FF4805122
:1012EC003D4800F07CFF3B68DBB21A464FF40051DE
:1012FC00394800F074FF35E23B68DBB21A468021B6
:10130C00354800F06CFF7B68DBB21A464FF48071F5
:10131C00314800F064FF7B68DBB21A464FF4007171
:10132C002D4800F05CFF3B68DBB21A464FF480613D
:10133C00294800F054FF3B68DBB21A464FF40061B9
:10134C00254800F04CFF3B68DBB21A464FF4805145
:10135C00214800F044FF3B68DBB21A464FF40051C1
:10136C001D4800F03CFFFDE17B68DBB21A46802192
:10137C00194800F034FF7B68DBB21A464FF48071D9
:10138C00154800F02CFF3B68DBB21A464FF4007195
:10139C00114800F024FF7B68DBB21A464FF48061E1
:1013AC000D4800F01CFF7B68DBB21A464FF400615D
:1013BC00094800F014FF3B68DBB21A464FF4805129
:1013CC00054800F00CFF7B68DBB21A464FF4005165
:1013DC00014800F004FFC5E1000C01408000002032
:1013EC007B68DBB21A468021A54800F0F8FE7B68CA
:1013FC00DBB21A464FF48071A14800F0F0FE7B6816
:10140C00DBB21A464FF400719D4800F0E8FE7B6891
:10141C00DBB21A464FF48061994800F0E0FE3B685D
:10142C00DBB21A464FF40061954800F0D8FE3B68D9
:10143C00DBB21A464FF48051914800F0D0FE7B6825
:10144C00DBB21A464FF400518D4800F0C8FE89E11A
:10145C003B68DBB21A468021894800F0C0FE7B68ED
:10146C00DBB21A464FF48071854800F0B8FE7B68F9
:10147C00DBB21A464FF40071814800F0B0FE3B68B5
:10148C00DBB21A464FF480617D4800F0A8FE3B6841
:10149C00DBB21A464FF40061794800F0A0FE7B687D
:1014AC00DBB21A464FF48051754800F098FE7B6809
:1014BC00DBB21A464FF40051714800F090FE51E136
:1014CC007B68DBB21A4680216D4800F088FE3B68D1
:1014DC00DBB21A464FF48071694800F080FE7B68DD
:1014EC00DBB21A464FF40071654800F078FE7B6859
:1014FC00DBB21A464FF48061614800F070FE3B6825
:10150C00DBB21A464FF400615D4800F068FE7B6860
:10151C00DBB21A464FF48051594800F060FE7B68EC
:10152C00DBB21A464FF40051554800F058FE19E151
:10153C007B68DBB21A468021514800F050FE3B68B4
:10154C00DBB21A464FF480714D4800F048FE7B68C0
:10155C00DBB21A464FF40071494800F040FE7B683C
:10156C00DBB21A464FF48061454800F038FE7B68C8
:10157C00DBB21A464FF40061414800F030FE7B6844
:10158C00DBB21A464FF480513D4800F028FE7B68D0
:10159C00DBB21A464FF40051394800F020FEE1E06E
:1015AC007B68DBB21A468021354800F018FE7B6858
:1015BC00DBB21A464FF48071314800F010FE7B68A4
:1015CC00DBB21A464FF400712D4800F008FE3B6860
:1015DC00DBB21A464FF48061294800F000FE3B68EC
:1015EC00DBB21A464FF40061254800F0F8FD3B6869
:1015FC00DBB21A464FF48051214800F0F0FD3B68F5
:10160C00DBB21A464FF400511D4800F0E8FDA9E08A
:10161C007B68DBB21A468021194800F0E0FD7B683C
:10162C00DBB21A464FF48071154800F0D8FD7B6888
:10163C00DBB21A464FF40071114800F0D0FD7B6804
:10164C00DBB21A464FF480610D4800F0C8FD7B6890
:10165C00DBB21A464FF40061094800F0C0FD7B680C
:10166C00DBB21A464FF48051054800F0B8FD7B6898
:10167C00DBB21A464FF40051014800F0B0FD71E0A6
:10168C00000C01407B68DBB21A468021374800F021
:10169C00A6FD7B68DBB21A464FF48071334800F02C
:1016AC009EFD7B68DBB21A464FF400712F4800F0A8
:1016BC0096FD7B68DBB21A464FF480612B4800F034
:1016CC008EFD3B68DBB21A464FF40061274800F0F0
:1016DC0086FD7B68DBB21A464FF48051234800F03C
:1016EC007EFD7B68DBB21A464FF400511F4800F0B8
:1016FC0076FD37E03B68DBB21A4680211B4800F0D0
:10170C006EFD3B68DBB21A464FF48071174800F04F
:10171C0066FD3B68DBB21A464FF40071134800F0CB
:10172C005EFD3B68DBB21A464FF480610F4800F057
:10173C0056FD3B68DBB21A464FF400610B4800F0D3
:10174C004EFD3B68DBB21A464FF48051074800F05F
:10175C0046FD3B68DBB21A464FF40051034800F0DB
:10176C003EFD00BF00BF0837BD4680BD000C0140E8
:10177C0080B500AF844B1B78022B29D0022B6FDC79
:10178C00002B49D0012B6BD1002220217F4800F087
:10179C0026FD002240217D4800F021FD0122802100
:1017AC007A4800F01CFD7A4B1B68013B784A1360A9
:1017BC00774B1B68774A1360754B1B68002B51DC09
:1017CC00714B02221A70744B1B68714A136049E00A
:1017DC00002220216D4800F002FD012240216B48BF
:1017EC0000F0FDFC00228021684800F0F8FC684BFA
:1017FC001B68013B664A1360654B1B68654A1360A6
:10180C00634B1B68002B2FDC5F4B00221A70634B61
:10181C001B685F4A136027E0012220215B4800F01F
:10182C00DEFC00224021594800F0D9FC0022802126
:10183C00564800F0D4FC564B1B68013B544A1360CD
:10184C00534B1B68534A1360514B1B68002B0DDC28
:10185C004D4B01221A70524B1B684D4A136005E028
:10186C0000BF04E000BF02E000BF00E000BF4D4B32
:10187C001B78022B2DD0022B7BDC002B51D0012BA3
:10188C0077D100220821414800F0A9FC0022042154
:10189C003E4800F0A4FC012202213C4800F09FFCD1
:1018AC00414B1B68013B404A13603F4B1B68394A54
:1018BC009360384B9B68374A53603B4B1B68002B3B
:1018CC0059DC384B02221A70334B1B68364A1360B2
:1018DC0051E0002208212D4800F081FC0122042156
:1018EC002A4800F07CFC00220221284800F077FCFA
:1018FC002D4B1B68013B2C4A13602B4B1B68254A54
:10190C009360244B9B68234A5360274B1B68002B26
:10191C0033DC244B00221A70204B1B68224A1360C4
:10192C002BE001220821194800F059FC0022042167
:10193C00164800F054FC00220221144800F04FFC21
:10194C00194B1B68013B184A1360174B1B68114A53
:10195C009360104B9B680F4A5360134B1B68002B12
:10196C000DDC104B01221A700D4B1B680E4A1360D4
:10197C0005E000BF04E000BF02E000BF00E000BFD4
:10198C00FEF78AFF00BF80BD8C00002000080140DC
:10199C003C00002080000020340000203800002093
:1019AC0030000020400000204400002080B485B0AE
:1019BC0000AF154B9B69144A43F001039361124B22
:1019CC009B6903F00103BB60BB680F4BDB690E4ADC
:1019DC0043F08053D3610C4BDB6903F080537B6085
:1019EC007B680A4B5B68FB60FB6823F0E063FB6081
:1019FC00FB6843F08063FB60044AFB68536000BFE4
:101A0C001437BD4680BC70470010024000000140F6
:101A1C0080B584B000AF78607B681B68B3F1804FF1
:101A2C0013D10C4BDB690B4A43F00103D361094B17
:101A3C00DB6903F00103FB60FB68002200211C2022
:101A4C0000F005FA1C2000F01EFA00BF1037BD464E
:101A5C0080BD00BF0010024080B400AFFEE780B430
:101A6C0000AFFEE780B400AFFEE780B400AFFEE746
:101A7C0080B400AFFEE780B400AF00BFBD4680BCB1
:101A8C00704780B400AF00BFBD4680BC704780B4C7
:101A9C0000AF00BFBD4680BC704780B500AF00F002
:101AAC00E3F800BF80BD000080B500AF024801F034
:101ABC003FF800BF80BD00BFAC00002080B400AF79
:101ACC0000BFBD4680BC704780B400AF194B1B688B
:101ADC00002B0BDD174B1B68013B164A1360154B93
:101AEC001B68002B02DC144B01221A60134B1B6881
:101AFC00002B0BDD114B1B68013B104A13600F4B85
:101B0C001B68002B02DC0E4B01221A600D4B1B686C
:101B1C00002B0BDD0B4B1B68013B0A4A1360094B76
:101B2C001B68002B02DC084B01221A6000BFBD466B
:101B3C0080BC70479C00002090000020A00000207A
:101B4C0094000020A40000209800002080B582B0F2
:101B5C0000AF7860FEF72AFBFFF7B6FF00BF08372F
:101B6C00BD4680BD80B483B000AF78600A227B682C
:101B7C0093FBF2F3044A1360044B00221A6000BF7B
:101B8C000C37BD4680BC70479C00002090000020A4
:101B9C00FFF794FF0B480C490C4A002302E0D45881
:101BAC00C4500433C4188C42F9D3094A094C00239D
:101BBC0001E013600432A242FBD301F005FBFEF7F7
:101BCC0051FD7047000000205400002070320008C6
:101BDC0054000020F8000020FEE7000080B500AFA4
:101BEC00084B1B68074A43F010031360032000F0F6
:101BFC0023F90F2000F008F8FFF7D8FE0023184651
:101C0C0080BD00BF0020024080B582B000AF78607C
:101C1C00124B1A68124B1B7819464FF47A73B3FBAC
:101C2C00F1F3B2FBF3F3184600F03BF90346002B3B
:101C3C0001D001230EE07B680F2B0AD800227968B3
:101C4C004FF0FF3000F003F9064A7B681360002365
:101C5C0000E0012318460837BD4680BD480000202F
:101C6C00500000204C00002080B400AF054B1B78C6
:101C7C001A46054B1B681344034A136000BFBD464C
:101C8C0080BC704750000020F400002080B400AFEE
:101C9C00024B1B681846BD4680BC7047F400002000
:101CAC0080B485B000AF78607B6803F00703FB60FD
:101CBC000C4BDB68BB60BA684FF6FF031340BB608C
:101CCC00FB681A02BB68134343F0BF6343F4003351
:101CDC00BB60044ABB68D36000BF1437BD4680BCF0
:101CEC00704700BF00ED00E080B400AF044BDB6830
:101CFC001B0A03F007031846BD4680BC704700BFA3
:101D0C0000ED00E080B483B000AF0346FB7197F99F
:101D1C000730002B0BDBFB7903F01F02064997F908
:101D2C0007305B09012000FA02F241F8232000BFC2
:101D3C000C37BD4680BC704700E100E080B483B036
:101D4C0000AF03463960FB7197F90730002B0ADBB3
:101D5C003B68DAB20C4997F907301201D2B20B4446
:101D6C0083F800230AE03B68DAB20849FB7903F0F8
:101D7C000F03043B1201D2B20B441A7600BF0C378E
:101D8C00BD4680BC704700BF00E100E000ED00E004
:101D9C0080B489B000AFF860B9607A60FB6803F07A
:101DAC000703FB61FB69C3F10703042B28BF042362
:101DBC00BB61FB690433062B02D9FB69033B00E0D2
:101DCC0000237B614FF0FF32BB6902FA03F3DA4365
:101DDC00BB681A407B699A404FF0FF317B6901FA6E
:101DEC0003F3D9437B680B40134318462437BD4695
:101DFC0080BC704780B582B000AF78607B68013BD7
:101E0C00B3F1807F01D301230FE00A4A7B68013BC9
:101E1C0053600F214FF0FF30FFF790FF054B00226E
:101E2C009A60044B07221A60002318460837BD46F7
:101E3C0080BD00BF10E000E080B582B000AF7860DC
:101E4C007868FFF72DFF00BF0837BD4680BD80B511
:101E5C0086B000AF0346B9607A60FB7300237B61E8
:101E6C00FFF742FF78617A68B9687869FFF790FFED
:101E7C00024697F90F3011461846FFF75FFF00BF77
:101E8C001837BD4680BD80B582B000AF0346FB71EC
:101E9C0097F907301846FFF735FF00BF0837BD46E6
:101EAC0080BD80B582B000AF78607868FFF7A2FF84
:101EBC00034618460837BD4680BD000080B48BB081
:101ECC0000AF7860396000237B6200233B6248E1FD
:101EDC0001227B6A02FA03F3FB613B681B68FA6917
:101EEC001340BB61BA69FB699A4240F037813B6889
:101EFC005B68A34A93425ED0A14A934275D8A14A2B
:101F0C00934258D09F4A93426FD89F4A934252D0E3
:101F1C009D4A934269D89D4A93424CD09B4A934226
:101F2C0063D89B4A934246D0994A93425DD8122B70
:101F3C002AD8122B59D801A252F823F0C31F00083B
:101F4C009D1F0008AF1F0008F11F0008F71F0008B5
:101F5C00F71F0008F71F0008F71F0008F71F0008FD
:101F6C00F71F0008F71F0008F71F0008F71F0008ED
:101F7C00F71F0008F71F0008F71F0008F71F0008DD
:101F8C00A51F0008B91F0008824A934213D02CE009
:101F9C003B68DB683B6229E03B68DB6804333B62EF
:101FAC0024E03B68DB6808333B621FE03B68DB687E
:101FBC000C333B621AE03B689B68002B02D1042374
:101FCC003B6213E03B689B68012B05D108233B6205
:101FDC007B68FA691A6109E008233B627B68FA693D
:101FEC005A6103E000233B6200E000BFBB69FF2B9A
:101FFC0001D87B6801E07B6804337B61BB69FF2BF4
:10200C0002D87B6A9B0002E07B6A083B9B003B6129
:10201C007B691A680F213B6901FA03F3DB431A4011
:10202C00396A3B6901FA03F31A437B691A603B680E
:10203C005B6803F08053002B00F09080564B9B693B
:10204C00554A43F001039361534B9B6903F0010321
:10205C00BB60BB68514A7B6A9B08023352F8233041
:10206C00FB607B6A03F003039B000F2202FA03F36D
:10207C00DB43FA681340FB607B68494A93420DD0FE
:10208C007B68484A934207D07B68474A934201D108
:10209C00022304E0032302E0012300E000237A6A18
:1020AC0002F0030292009340FA681343FB603B4931
:1020BC007B6A9B080233FA6841F823203B685B6813
:1020CC0003F48013002B06D0384B9A683749BB6950
:1020DC0013438B6006E0354B9A68BB69DB4333498D
:1020EC0013408B603B685B6803F40013002B06D035
:1020FC002E4BDA682D49BB691343CB6006E02B4BA2
:10210C00DA68BB69DB4329491340CB603B685B68E9
:10211C0003F40033002B06D0244B5A682349BB69C7
:10212C0013434B6006E0214B5A68BB69DB431F49E4
:10213C0013404B603B685B6803F48033002B06D084
:10214C001A4B1A681949BB6913430B6006E0174B0D
:10215C001A68BB69DB43154913400B607B6A01337A
:10216C007B623B681A687B6A22FA03F3002B7FF4CC
:10217C00AFAE00BF00BF2C37BD4680BC704700BF60
:10218C00000032100000311000002210000021105D
:10219C00000012100000111000100240000001405D
:1021AC0000080140000C01400010014000040140F7
:1021BC0080B485B000AF78600B467B807B689A68F2
:1021CC007B881340002B02D00123FB7301E000231A
:1021DC00FB73FB7B18461437BD4680BC704780B43C
:1021EC0083B000AF78600B467B8013467B707B78A6
:1021FC00002B03D07A887B681A6103E07B881A0471
:10220C007B681A6100BF0C37BD4680BC704780B438
:10221C0085B000AF78600B467B807B68DB68FB6029
:10222C007A88FB6813401A04FB68D9437B880B40FF
:10223C001A437B681A6100BF1437BD4680BC7047D7
:10224C0080B586B000AF78607B68002B01D101238C
:10225C006CE27B681B6803F00103002B00F08780A5
:10226C00924B5B6803F00C03042B0CD08F4B5B6818
:10227C0003F00C03082B12D18C4B5B6803F48033F6
:10228C00B3F5803F0BD1894B1B6803F40033002B53
:10229C006CD07B685B68002B68D1012346E27B68BD
:1022AC005B68B3F5803F06D1804B1B687F4A43F4D3
:1022BC00803313602EE07B685B68002B0CD17B4B6A
:1022CC001B687A4A23F480331360784B1B68774A77
:1022DC0023F4802313601DE07B685B68B3F5A02FAB
:1022EC000CD1724B1B68714A43F4802313606F4B03
:1022FC001B686E4A43F4803313600BE06B4B1B6816
:10230C006A4A23F480331360684B1B68674A23F4D2
:10231C00802313607B685B68002B13D0FFF7B6FC3F
:10232C00386108E0FFF7B2FC02463B69D31A642B14
:10233C0001D90323FAE15D4B1B6803F40033002B36
:10234C00F0D014E0FFF7A2FC386108E0FFF79EFC28
:10235C0002463B69D31A642B01D90323E6E1534BA4
:10236C001B6803F40033002BF0D100E000BF7B6846
:10237C001B6803F00203002B63D04C4B5B6803F02B
:10238C000C03002B0BD0494B5B6803F00C03082BA0
:10239C001CD1464B5B6803F48033002B16D1434BA6
:1023AC001B6803F00203002B05D07B681B69012B13
:1023BC0001D00123BAE13D4B1B6823F0F8027B6886
:1023CC005B69DB00394913430B603AE07B681B699E
:1023DC00002B20D0364B01221A60FFF757FC3861D6
:1023EC0008E0FFF753FC02463B69D31A022B01D9D4
:1023FC0003239BE12D4B1B6803F00203002BF0D051
:10240C002A4B1B6823F0F8027B685B69DB002749C9
:10241C0013430B6015E0264B00221A60FFF736FCC5
:10242C00386108E0FFF732FC02463B69D31A022BF5
:10243C0001D903237AE11D4B1B6803F00203002B27
:10244C00F0D17B681B6803F00803002B3AD07B6843
:10245C009B69002B19D0174B01221A60FFF716FC51
:10246C00386108E0FFF712FC02463B69D31A022BD5
:10247C0001D903235AE10D4B5B6A03F00203002BD5
:10248C00F0D0012000F09AFA1CE00A4B00221A60EE
:10249C00FFF7FCFB38610FE0FFF7F8FB02463B69E6
:1024AC00D31A022B08D9032340E100BF00100240CD
:1024BC0000004242800442429E4B5B6A03F00203DE
:1024CC00002BE9D17B681B6803F00403002B00F0A0
:1024DC00A6800023FB75974BDB6903F08053002B20
:1024EC000DD1944BDB69934A43F08053D361914BEC
:1024FC00DB6903F08053BB60BB680123FB758E4B1B
:10250C001B6803F48073002B18D18B4B1B688A4A11
:10251C0043F480731360FFF7B9FB386108E0FFF7F1
:10252C00B5FB02463B69D31A642B01D90323FDE0AA
:10253C00814B1B6803F48073002BF0D07B68DB6845
:10254C00012B06D17B4B1B6A7A4A43F001031362C1
:10255C002DE07B68DB68002B0CD1764B1B6A754A2F
:10256C0023F001031362734B1B6A724A23F00403BA
:10257C0013621CE07B68DB68052B0CD16D4B1B6A6E
:10258C006C4A43F0040313626A4B1B6A694A43F0BA
:10259C00010313620BE0674B1B6A664A23F00103CD
:1025AC001362644B1B6A634A23F0040313627B6857
:1025BC00DB68002B15D0FFF769FB38610AE0FFF7E9
:1025CC0065FB02463B69D31A41F28832934201D92A
:1025DC000323ABE0574B1B6A03F00203002BEED036
:1025EC0014E0FFF753FB38610AE0FFF74FFB02469C
:1025FC003B69D31A41F28832934201D9032395E007
:10260C004C4B1B6A03F00203002BEED1FB7D012B1C
:10261C0005D1484BDB69474A23F08053D3617B6873
:10262C00DB69002B00F08180424B5B6803F00C03EC
:10263C00082B61D07B68DB69022B46D13F4B002213
:10264C001A60FFF723FB386108E0FFF71FFB024617
:10265C003B69D31A022B01D9032367E0354B1B6866
:10266C0003F00073002BF0D17B681B6AB3F5803F3D
:10267C0008D1304B5B6823F400327B689B682D4992
:10268C0013434B602B4B5B6823F474127B68196A01
:10269C007B685B6A0B43274913434B60274B012232
:1026AC001A60FFF7F3FA386108E0FFF7EFFA024619
:1026BC003B69D31A022B01D9032337E01D4B1B684E
:1026CC0003F00073002BF0D02FE01C4B00221A609B
:1026DC00FFF7DCFA386108E0FFF7D8FA02463B69ED
:1026EC00D31A022B01D9032320E0124B1B6803F0F1
:1026FC000073002BF0D118E07B68DB69012B01D152
:10270C00012313E00B4B5B68FB60FB6803F4803226
:10271C007B681B6A9A4206D1FB6803F470127B68D3
:10272C005B6A9A4201D0012300E000231846183757
:10273C00BD4680BD00100240007000406000424267
:10274C0080B584B000AF786039607B68002B01D114
:10275C000123D0E06A4B1B6803F007033A689A42E6
:10276C0010D9674B1B6823F0070265493B6813437C
:10277C000B60634B1B6803F007033A689A4201D065
:10278C000123B8E07B681B6803F00203002B20D008
:10279C007B681B6803F00403002B05D0594B5B6866
:1027AC00584A43F4E06353607B681B6803F00803EA
:1027BC00002B05D0534B5B68524A43F46053536073
:1027CC00504B5B6823F0F0027B689B684D491343C8
:1027DC004B607B681B6803F00103002B40D07B68C7
:1027EC005B68012B07D1474B1B6803F40033002BAC
:1027FC0015D101237FE07B685B68022B07D1414B2D
:10280C001B6803F00073002B09D1012373E03D4BCF
:10281C001B6803F00203002B01D101236BE0394B41
:10282C005B6823F003027B685B68364913434B609B
:10283C00FFF72CFAF8600AE0FFF728FA0246FB686B
:10284C00D31A41F28832934201D9032353E02D4B22
:10285C005B6803F00C027B685B689B009A42EBD1CF
:10286C00274B1B6803F007033A689A4210D2244B9B
:10287C001B6823F0070222493B6813430B60204B73
:10288C001B6803F007033A689A4201D0012332E037
:10289C007B681B6803F00403002B08D0194B5B68A2
:1028AC0023F4E0627B68DB68164913434B607B685A
:1028BC001B6803F00803002B09D0124B5B6823F450
:1028CC0060527B681B69DB000E4913434B6000F0C0
:1028DC0021F802460B4B5B681B0903F00F030A49F6
:1028EC00CB5C22FA03F3094A1360094B1B681846A8
:1028FC00FFF78AF9002318461037BD4680BD00BF8C
:10290C000020024000100240443200084800002021
:10291C004C00002080B487B000AF0023FB60002384
:10292C00BB6000237B6100237B6000233B611E4B5B
:10293C005B68FB60FB6803F00C03042B02D0082BD4
:10294C0003D027E0194B3B6127E0FB689B0C03F09D
:10295C000F03174AD35C7B60FB6803F48033002BB6
:10296C0010D0114B5B685B0C03F00103114AD35C74
:10297C00BB607B680D4A02FB03F2BB68B2FBF3F34E
:10298C007B6104E07B680C4A02FB03F37B617B698F
:10299C003B6102E0054B3B6100BF3B6918461C37AD
:1029AC00BD4680BC704700BF0010024000127A0088
:1029BC00543200086432000800093D0080B485B030
:1029CC0000AF78600A4B1B680A4AA2FB03235B0A20
:1029DC007A6802FB03F3FB6000BFFB685A1EFA60C7
:1029EC00002BF9D100BF00BF1437BD4680BC704727
:1029FC0048000020D34D621080B582B000AF7860E3
:102A0C007B68002B01D1012341E07B6893F83D30BA
:102A1C00DBB2002B06D17B68002283F83C2078685F
:102A2C00FEF7F6FF7B68022283F83D207B681A686C
:102A3C007B6804331946104600F06EFA7B6801225D
:102A4C0083F846207B68012283F83E207B680122B4
:102A5C0083F83F207B68012283F840207B680122A9
:102A6C0083F841207B68012283F842207B68012295
:102A7C0083F843207B68012283F844207B68012281
:102A8C0083F845207B68012283F83D2000231846FB
:102A9C000837BD4680BD000080B485B000AF7860BB
:102AAC007B6893F83D30DBB2012B01D0012335E07C
:102ABC007B68022283F83D207B681B68DA687B68A0
:102ACC001B6842F00102DA607B681B68164A93426D
:102ADC0009D07B681B68B3F1804F04D07B681B68FE
:102AEC00124A934211D17B681B689B6803F0070361
:102AFC00FB60FB68062B10D07B681B681A687B6830
:102B0C001B6842F001021A6007E07B681B681A68B8
:102B1C007B681B6842F001021A60002318461437C8
:102B2C00BD4680BC704700BF002C01400004004033
:102B3C0080B582B000AF78607B681B681B6903F0BE
:102B4C000203022B22D17B681B68DB6803F00203B3
:102B5C00022B1BD17B681B686FF002021A617B6829
:102B6C0001221A777B681B689B6903F00303002B17
:102B7C0003D0786800F0B4F905E0786800F0A7F9A4
:102B8C00786800F0B6F97B6800221A777B681B68BE
:102B9C001B6903F00403042B22D17B681B68DB68E0
:102BAC0003F00403042B1BD17B681B686FF0040239
:102BBC001A617B6802221A777B681B689B6903F495
:102BCC004073002B03D0786800F08AF905E0786830
:102BDC0000F07DF9786800F08CF97B6800221A7798
:102BEC007B681B681B6903F00803082B22D17B68E8
:102BFC001B68DB6803F00803082B1BD17B681B6880
:102C0C006FF008021A617B6804221A777B681B68D4
:102C1C00DB6903F00303002B03D0786800F060F944
:102C2C0005E0786800F053F9786800F062F97B6889
:102C3C0000221A777B681B681B6903F01003102BAA
:102C4C0022D17B681B68DB6803F01003102B1BD1AF
:102C5C007B681B686FF010021A617B6808221A7778
:102C6C007B681B68DB6903F44073002B03D0786826
:102C7C0000F036F905E0786800F029F9786800F082
:102C8C0038F97B6800221A777B681B681B6903F094
:102C9C000103012B0ED17B681B68DB6803F0010379
:102CAC00012B07D17B681B686FF001021A617868F1
:102CBC00FEF74CFF7B681B681B6903F08003802BBD
:102CCC000ED17B681B68DB6803F08003802B07D177
:102CDC007B681B686FF080021A61786800F06BFAF1
:102CEC007B681B681B6903F04003402B0ED17B688B
:102CFC001B68DB6803F04003402B07D17B681B6823
:102D0C006FF040021A61786800F0FCF87B681B6871
:102D1C001B6903F02003202B0ED17B681B68DB683A
:102D2C0003F02003202B07D17B681B686FF0200277
:102D3C001A61786800F036FA00BF0837BD4680BDCE
:102D4C0080B584B000AF786039600023FB737B687A
:102D5C0093F83C30012B01D10223B4E07B680122B3
:102D6C0083F83C207B68022283F83D207B681B683B
:102D7C009B68BB60BB6823F07703BB60BB6823F424
:102D8C007F43BB607B681B68BA689A603B681B68B2
:102D9C00B3F5005F3ED0B3F5005F00F28780B3F56A
:102DAC00805F00F08680B3F5805F7FD8702B1AD0DF
:102DBC00702B7BD8602B50D0602B77D8502B3CD00D
:102DCC00502B73D8402B58D0402B6FD8302B64D05D
:102DDC00302B6BD8202B60D0202B67D8002B5CD0ED
:102DEC00102B5AD062E07B6818683B6899683B6886
:102DFC005A683B68DB6800F05EF97B681B689B686F
:102E0C00BB60BB6843F07703BB607B681B68BA6828
:102E1C009A604FE07B6818683B6899683B685A6811
:102E2C003B68DB6800F047F97B681B689A687B6835
:102E3C001B6842F480429A603CE07B6818683B68EF
:102E4C0059683B68DB681A4600F0BEF87B681B6863
:102E5C005021184600F015F92CE07B6818683B6887
:102E6C0059683B68DB681A4600F0DCF87B681B6825
:102E7C006021184600F005F91CE07B6818683B6877
:102E8C0059683B68DB681A4600F09EF87B681B6843
:102E9C004021184600F0F5F80CE07B681A683B6896
:102EAC001B681946104600F0ECF803E00123FB7395
:102EBC0000E000BF7B68012283F83D207B68002284
:102ECC0083F83C20FB7B18461037BD4680BD80B490
:102EDC0083B000AF786000BF0C37BD4680BC704734
:102EEC0080B483B000AF786000BF0C37BD4680BCA7
:102EFC00704780B483B000AF786000BF0C37BD461C
:102F0C0080BC704780B483B000AF786000BF0C37D2
:102F1C00BD4680BC7047000080B485B000AF7860BF
:102F2C0039607B681B68FB607B68254A934207D03D
:102F3C007B68B3F1804F03D07B68224A934208D15F
:102F4C00FB6823F07003FB603B685B68FA68134313
:102F5C00FB607B681A4A934207D07B68B3F1804FC1
:102F6C0003D07B68174A934208D1FB6823F4407363
:102F7C00FB603B68DB68FA681343FB60FB6823F07B
:102F8C0080023B685B691343FB607B68FA681A60DC
:102F9C003B689A687B68DA623B681A687B689A625D
:102FAC007B68074A934203D13B681A697B681A63B2
:102FBC007B6801225A6100BF1437BD4680BC704744
:102FCC00002C01400004004080B487B000AFF860D2
:102FDC00B9607A60FB681B6A7B61FB681B6A23F033
:102FEC000102FB681A62FB689B693B613B6923F039
:102FFC00F0033B617B681B013A6913433B617B69BE
:10300C0023F00A037B617A69BB6813437B61FB681D
:10301C003A699A61FB687A691A6200BF1C37BD462F
:10302C0080BC704780B487B000AFF860B9607A603C
:10303C00FB681B6A7B61FB681B6A23F01002FB6850
:10304C001A62FB689B693B613B6923F470433B61EB
:10305C007B681B033A6913433B617B6923F0A00334
:10306C007B61BB681B017A6913437B61FB683A691E
:10307C009A61FB687A691A6200BF1C37BD4680BC36
:10308C00704780B485B000AF786039607B689B680E
:10309C00FB60FB6823F07003FB603A68FB6813432A
:1030AC0043F00703FB607B68FA689A6000BF143733
:1030BC00BD4680BC704780B487B000AFF860B96083
:1030CC007A603B60FB689B687B617B6923F47F4380
:1030DC007B613B681A027B681A43BB6813437A69AD
:1030EC0013437B61FB687A699A6000BF1C37BD464D
:1030FC0080BC704780B485B000AF786039607B6865
:10310C0093F83C30012B01D1022341E07B68012272
:10311C0083F83C207B68022283F83D207B681B6887
:10312C005B68FB607B681B689B68BB60FB6823F07B
:10313C007003FB603B681B68FA681343FB607B6899
:10314C001B68FA685A607B681B68144A934209D062
:10315C007B681B68B3F1804F04D07B681B68104AF6
:10316C0093420CD1BB6823F08003BB603B685B6867
:10317C00BA681343BB607B681B68BA689A607B684B
:10318C00012283F83D207B68002283F83C20002339
:10319C0018461437BD4680BC704700BF002C014058
:1031AC000004004080B483B000AF786000BF0C37DF
:1031BC00BD4680BC704780B483B000AF786000BF60
:1031CC000C37BD4680BC704770B500260C4D0D4CBD
:1031DC00641BA410A64209D100F022F800260A4D67
:1031EC000A4C641BA410A64205D170BD55F8043BD3
:1031FC0098470136EEE755F8043B98470136F2E75D
:10320C006832000868320008683200086C32000826
:10321C0003460244934200D1704703F8011BF9E7BF
:10322C00F8B500BFF8BC08BC9E467047F8B500BFA7
:08323C00F8BC08BC9E46704777
:103244000000000000000000010203040607080952
:1032540002030405060708090A0B0C0D0E0F1010D3
:043264000102000063
:043268003101000828
:04326C000D01000848
:10327000010000000100000001000000010000004A
:10328000010000000100000001000000010000003A
:10329000010000000100000001000000010000002A
:1032A000030000000200000005000000050000000F
:1032B00001000000030000000024F40010000000E2
:0432C0000100000009
:0400000508001B9D37
:00000001FF
