:020000040800F2
:10000000002800204D170008E9150008EF1500082A
:10001000F5150008FB150008011600080000000097
:1000200000000000000000000000000007160008AB
:1000300013160008000000001F1600082B16000809
:1000400095170008951700089517000895170008E0
:1000500095170008951700089517000895170008D0
:1000600095170008951700089517000895170008C0
:1000700095170008951700089517000895170008B0
:1000800095170008951700089517000895170008A0
:100090009517000895170008951700089517000890
:1000A0009517000895170008951700089517000880
:1000B0003916000895170008000000009517000881
:1000C00095170008000000000000000095170008C8
:1000D00000000000951700089517000800000000B8
:1000E00095170008951700089517000800000000F4
:1000F0000000000000000000000000000000000000
:0C01000000000000000000005FF808F1A3
:10010C0010B5054C237833B9044B13B10448AFF345
:10011C0000800123237010BD54000020000000005B
:10012C00DC2D000808B5034B1BB103490348AFF3A2
:10013C00008008BD0000000058000020DC2D0008E5
:10014C0080B400AF064B1B68012B04D1044B00227A
:10015C001A60012300E000231846BD4680BC70479E
:10016C007000002080B400AF064B1B68012B04D13B
:10017C00044B00221A60012300E000231846BD4600
:10018C0080BC70477400002080B400AF064B1B6825
:10019C00012B04D1044B00221A60012300E0002340
:1001AC001846BD4680BC70477800002080B500AF73
:1001BC00454B5B68444A1360444B1B68424A53608E
:1001CC004FF40071424801F0CBFD03461A463F4BF9
:1001DC001A603D4B1A683C4B5B689A4216D13A4BFD
:1001EC005A683A4B1B689A4210D13A4B1A68374BF3
:1001FC001B689A420AD0354B1B68364A1360334B46
:10020C001B68002B02D1344B01221A60334B5B6804
:10021C00324A1360324B1B68304A53604FF4806192
:10022C002B4801F09DFD03461A462D4B1A602B4BB3
:10023C001A682A4B5B689A4216D1284B5A68284B8D
:10024C001B689A4210D1274B1A68254B1B689A429F
:10025C000AD0234B1B68234A1360214B1B68002BCD
:10026C0002D1214B01221A60204B5B681F4A13609C
:10027C001F4B1B681D4A53604FF40061144801F07A
:10028C006FFD03461A461A4B1A60184B1A68174B27
:10029C005B689A4216D1154B5A68154B1B689A42EB
:1002AC0010D1144B1A68124B1B689A420AD0104B8F
:1002BC001B68104A13600E4B1B68002B02D10E4BAF
:1002CC0001221A6000BF80BD000000200800002041
:1002DC00000801400C0000207000002010000020DD
:1002EC00180000201C0000207400002020000020BA
:1002FC00280000202C0000207800002080B500AFE2
:10030C00A64B1B78032B00F23D8101A252F823F07F
:10031C002D0300087703000835040008F1040008D9
:10032C009F4B1B68012B05D14FF47A7001F0DCF95F
:10033C0000F0EEFFFFF704FF0346002B00F02481D2
:10034C00964B01221A70FA2001F0CEF9954B1B68DE
:10035C00954A136001222021944801F018FD0122D6
:10036C000821924801F013FD0EE1002240218F4834
:10037C0001F00DFD002280218C4801F008FD0022C7
:10038C0004218A4801F003FD00220221874801F074
:10039C00FEFC874B02221A60834B1B68844A536015
:1003AC007F4B1B68012B0AD1FA2001F09DF920210B
:1003BC007E4801F004FD08217C4801F000FDFFF7A8
:1003CC00D1FE0346002B0BD0774B1B680133764ACA
:1003DC001360754B1B68632B02DD734B01221A6093
:1003EC00FFF7D2FE0346002B03D06F4B1B686D4A00
:1003FC001360FFF7A5FE0346002B00F0C780674B88
:10040C0002221A70FA2001F06FF96A4B1B68664AD7
:10041C00136001224021654801F0B9FC012204213E
:10042C00624801F0B4FCB1E0002220215F4801F0E9
:10043C00AEFC002280215D4801F0A9FC00220821BD
:10044C005A4801F0A4FC00220221584801F09FFCFC
:10045C00574B03221A60544B1B68554A5360504B40
:10046C001B68012B0AD1FA2001F03EF940214F48BC
:10047C0001F0A5FC04214D4801F0A1FCFFF772FE30
:10048C000346002B0BD0484B1B680133464A1360C4
:10049C00454B1B68632B02DD434B01221A60FFF7AF
:1004AC0073FE0346002B03D03F4B1B68414A13607D
:1004BC00FFF746FE0346002B6AD0384B03221A7016
:1004CC00FA2001F011F93C4B1B68374A13600122EA
:1004DC008021364801F05BFC01220221334801F0F7
:1004EC0056FC55E000222021304801F050FC00223F
:1004FC0040212E4801F04BFC002208212B4801F032
:10050C0046FC00220421294801F041FC284B04221E
:10051C001A60254B1B68264A5360214B1B68012B24
:10052C000AD1FA2001F0E0F88021204801F047FCC4
:10053C0002211E4801F043FCFFF714FE0346002B7A
:10054C000BD0194B1B680133174A1360164B1B68F1
:10055C00632B02DD144B01221A60FFF715FE0346D4
:10056C00002B03D0104B1B68134A1360FFF7E8FDF8
:10057C000346002B0ED0094B00221A70084B0122A7
:10058C001A6007E000BF06E000BF04E000BF02E015
:10059C0000BF00E000BF00BF80BD00BFA80000206E
:1005AC0090000020380000207C0000200008014052
:1005BC0080000020340000203000002080B500AF07
:1005CC0001F0E4F800F026F800F060F800F0AAF86A
:1005DC000D4802F039F84FF47A7001F085F80B4BA6
:1005EC0000221A704FF4FA7001F094F8FFF786FEAF
:1005FC00074B1B68012BF9D14FF4FA7001F08AF804
:10060C0000F0F0FDF2E700BFAC000020A8000020D5
:10061C009400002080B590B000AF07F11803282299
:10062C000021184602F0CCFB3B1D00221A605A60D8
:10063C009A60DA601A610223BB610123BB6210234A
:10064C00FB6200237B6307F11803184601F0D0FB13
:10065C000346002B01D000F0D5F80F237B6000235C
:10066C00BB600023FB6000233B6100237B613B1DCF
:10067C000021184601F03CFE0346002B01D000F08F
:10068C00C1F800BF4037BD4680BD000080B586B0C4
:10069C0000AF07F1080300221A605A609A60DA6012
:1006AC003B4600221A605A601D4B4FF080421A6084
:1006BC001B4B41F63F725A60194B00229A60184B43
:1006CC000922DA60164B00221A61154B00229A613E
:1006DC00134801F069FF0346002B01D000F092F89B
:1006EC004FF48053BB6007F1080319460C4802F025
:1006FC00FFF80346002B01D000F084F800233B6088
:10070C0000237B603B461946054802F0CBFA0346B2
:10071C00002B01D000F076F800BF1837BD4680BD25
:10072C00AC00002080B586B000AF07F108030022B2
:10073C001A605A609A60DA602F4B9B692E4A43F01C
:10074C00040393612C4B9B6903F004037B607B686F
:10075C00294B9B69284A43F008039361264B9B69FC
:10076C0003F008033B603B6800224FF2FE11234864
:10077C0001F00DFB002244F2FE71214801F007FB51
:10078C004FF2FE13BB600123FB6000233B6102238D
:10079C007B6107F108031946184801F067F901233A
:1007AC00BB600023FB6001233B6107F10803194682
:1007BC00134801F05BF944F2FE73BB600123FB604C
:1007CC0000233B6102237B6107F1080319460C48A7
:1007DC0001F04CF94FF46063BB600023FB60012314
:1007EC003B6107F108031946044801F03FF900BFCB
:1007FC001837BD4680BD00BF001002400008014004
:10080C00000C014080B400AF72B600BFFEE70000E0
:10081C0080B584B000AF78600023FB600123BB601F
:10082C007B68092B00F24C8201A252F823F000BF26
:10083C0065080008D508000845090008B509000836
:10084C00250A0008950A00080D0B00087D0B00080E
:10085C00ED0B00085D0C0008FB68DBB21A4610219A
:10086C00A54801F094FAFB68DBB21A464FF480718C
:10087C00A14801F08CFAFB68DBB21A464FF48051A8
:10088C009D4801F084FAFB68DBB21A464FF4005124
:10089C00994801F07CFAFB68DBB21A464FF48041B0
:1008AC00954801F074FAFB68DBB21A464FF400412C
:1008BC00914801F06CFABB68DBB21A464FF48041E8
:1008CC008E4801F064FA33E2BB68DBB21A461021A1
:1008DC00894801F05CFAFB68DBB21A464FF4807170
:1008EC00854801F054FAFB68DBB21A464FF480518C
:1008FC00814801F04CFABB68DBB21A464FF4005148
:10090C007D4801F044FABB68DBB21A464FF48041D3
:10091C00794801F03CFABB68DBB21A464FF400414F
:10092C00754801F034FABB68DBB21A464FF48041CB
:10093C00724801F02CFAFBE1FB68DBB21A4610217D
:10094C006D4801F024FAFB68DBB21A464FF4807153
:10095C00694801F01CFABB68DBB21A464FF48051AF
:10096C00654801F014FAFB68DBB21A464FF40051EB
:10097C00614801F00CFAFB68DBB21A464FF4804177
:10098C005D4801F004FABB68DBB21A464FF4004133
:10099C00594801F0FCF9FB68DBB21A464FF4804170
:1009AC00564801F0F4F9C3E1FB68DBB21A4610219A
:1009BC00514801F0ECF9FB68DBB21A464FF4807138
:1009CC004D4801F0E4F9FB68DBB21A464FF4805154
:1009DC00494801F0DCF9FB68DBB21A464FF40051D0
:1009EC00454801F0D4F9BB68DBB21A464FF480419C
:1009FC00414801F0CCF9BB68DBB21A464FF4004118
:100A0C003D4801F0C4F9FB68DBB21A464FF4804153
:100A1C003A4801F0BCF98BE1BB68DBB21A461021F5
:100A2C00354801F0B4F9FB68DBB21A464FF480711B
:100A3C00314801F0ACF9FB68DBB21A464FF4805137
:100A4C002D4801F0A4F9BB68DBB21A464FF40051F3
:100A5C00294801F09CF9BB68DBB21A464FF480417F
:100A6C00254801F094F9FB68DBB21A464FF40041BB
:100A7C00214801F08CF9FB68DBB21A464FF4804137
:100A8C001E4801F084F953E1FB68DBB21A461021D1
:100A9C00194801F07CF9BB68DBB21A464FF480713F
:100AAC00154801F074F9FB68DBB21A464FF480511B
:100ABC00114801F06CF9FB68DBB21A464FF4005197
:100ACC000D4801F064F9BB68DBB21A464FF4804163
:100ADC00094801F05CF9FB68DBB21A464FF400419F
:100AEC00054801F054F9FB68DBB21A464FF480411B
:100AFC00024801F04CF91BE100080140000C0140D8
:100B0C00FB68DBB21A4610218B4801F040F9BB6838
:100B1C00DBB21A464FF48071874801F038F9FB6854
:100B2C00DBB21A464FF48051834801F030F9FB6870
:100B3C00DBB21A464FF400517F4801F028F9FB68EC
:100B4C00DBB21A464FF480417B4801F020F9FB6878
:100B5C00DBB21A464FF40041774801F018F9FB68F4
:100B6C00DBB21A464FF48041744801F010F9DFE013
:100B7C00FB68DBB21A4610216F4801F008F9FB68DC
:100B8C00DBB21A464FF480716B4801F000F9FB6838
:100B9C00DBB21A464FF48051674801F0F8F8BB6895
:100BAC00DBB21A464FF40051634801F0F0F8BB6811
:100BBC00DBB21A464FF480415F4801F0E8F8BB689D
:100BCC00DBB21A464FF400415B4801F0E0F8BB6819
:100BDC00DBB21A464FF48041584801F0D8F8A7E030
:100BEC00FB68DBB21A461021534801F0D0F8FB68C1
:100BFC00DBB21A464FF480714F4801F0C8F8FB681D
:100C0C00DBB21A464FF480514B4801F0C0F8FB6838
:100C1C00DBB21A464FF40051474801F0B8F8FB68B4
:100C2C00DBB21A464FF48041434801F0B0F8FB6840
:100C3C00DBB21A464FF400413F4801F0A8F8FB68BC
:100C4C00DBB21A464FF480413C4801F0A0F86FE04B
:100C5C00FB68DBB21A461021374801F098F8FB68A4
:100C6C00DBB21A464FF48071334801F090F8FB6800
:100C7C00DBB21A464FF480512F4801F088F8FB681C
:100C8C00DBB21A464FF400512B4801F080F8BB68D8
:100C9C00DBB21A464FF48041274801F078F8FB6824
:100CAC00DBB21A464FF40041234801F070F8FB68A0
:100CBC00DBB21A464FF48041204801F068F837E067
:100CCC00BB68DBB21A4610211B4801F060F8BB6808
:100CDC00DBB21A464FF48071174801F058F8BB6824
:100CEC00DBB21A464FF48051134801F050F8BB6840
:100CFC00DBB21A464FF400510F4801F048F8BB68BC
:100D0C00DBB21A464FF480410B4801F040F8BB6847
:100D1C00DBB21A464FF40041074801F038F8BB68C3
:100D2C00DBB21A464FF48041044801F030F800BFA2
:100D3C0000BF1037BD4680BD00080140000C0140CB
:100D4C0080B584B000AF78600023FB600123BB60EA
:100D5C007B68092B00F20E8201A252F823F000BF2F
:100D6C00950D0008F90D00085D0E0008C10E000875
:100D7C00250F0008890F0008ED0F0008551000081A
:100D8C00B91000081D110008FB68DBB21A460121DE
:100D9C00AC4800F0FCFFFB68DBB21A460221A94804
:100DAC0000F0F5FFFB68DBB21A460421A54800F001
:100DBC00EEFFFB68DBB21A460821A24800F0E7FF01
:100DCC00FB68DBB21A4610219E4800F0E0FFFB687E
:100DDC00DBB21A4620219B4800F0D9FFBB68DBB27E
:100DEC001A464021974800F0D2FFF5E1BB68DBB210
:100DFC001A460121934800F0CAFFFB68DBB21A4681
:100E0C000221904800F0C3FFFB68DBB21A460421B4
:100E1C008C4800F0BCFFBB68DBB21A46082189483D
:100E2C0000F0B5FFBB68DBB21A461021854800F014
:100E3C00AEFFBB68DBB21A462021824800F0A7FF48
:100E4C00BB68DBB21A4640217E4800F0A0FFC3E12C
:100E5C00FB68DBB21A4601217A4800F098FFFB6868
:100E6C00DBB21A460221774800F091FFBB68DBB277
:100E7C001A460421734800F08AFFFB68DBB21A465D
:100E8C000821704800F083FFFB68DBB21A46102182
:100E9C006C4800F07CFFBB68DBB21A462021694825
:100EAC0000F075FFFB68DBB21A464021654800F084
:100EBC006EFF91E1FB68DBB21A460121614800F03C
:100ECC0066FFFB68DBB21A4602215E4800F05FFF4A
:100EDC00FB68DBB21A4604215A4800F058FFFB6845
:100EEC00DBB21A460821574800F051FFBB68DBB251
:100EFC001A461021534800F04AFFBB68DBB21A4671
:100F0C002021504800F043FFFB68DBB21A46402119
:100F1C004C4800F03CFF5FE1BB68DBB21A46012194
:100F2C00484800F034FFFB68DBB21A460221454802
:100F3C0000F02DFFFB68DBB21A460421414800F09B
:100F4C0026FFBB68DBB21A4608213E4800F01FFFA3
:100F5C00BB68DBB21A4610213A4800F018FFFB6858
:100F6C00DBB21A462021374800F011FFFB68DBB2D8
:100F7C001A464021334800F00AFF2DE1FB68DBB232
:100F8C001A4601212F4800F002FFBB68DBB21A465B
:100F9C0002212C4800F0FBFEFB68DBB21A46042150
:100FAC00284800F0F4FEFB68DBB21A4608212548FD
:100FBC0000F0EDFEBB68DBB21A461021214800F0B0
:100FCC00E6FEFB68DBB21A4620211E4800F0DFFE6D
:100FDC00FB68DBB21A4640211A4800F0D8FEFBE051
:100FEC00FB68DBB21A460121164800F0D0FEBB6844
:100FFC00DBB21A460221134800F0C9FEFB68DBB2D3
:10100C001A4604210F4800F0C2FEFB68DBB21A46F8
:10101C0008210C4800F0BBFEFB68DBB21A4610211D
:10102C00084800F0B4FEFB68DBB21A4620210548E4
:10103C0000F0ADFEFB68DBB21A464021014800F01F
:10104C00A6FEC9E0000C0140FB68DBB21A46012188
:10105C00634800F09CFEFB68DBB21A460221604834
:10106C0000F095FEFB68DBB21A4604215C4800F0E8
:10107C008EFEBB68DBB21A460821594800F087FE89
:10108C00BB68DBB21A461021554800F080FEBB68E5
:10109C00DBB21A462021524800F079FEBB68DBB265
:1010AC001A4640214E4800F072FE95E0FB68DBB218
:1010BC001A4601214A4800F06AFEFB68DBB21A4668
:1010CC000221474800F063FEFB68DBB21A4604219C
:1010DC00434800F05CFEFB68DBB21A46082140482E
:1010EC0000F055FEFB68DBB21A4610213C4800F0BC
:1010FC004EFEFB68DBB21A462021394800F047FE51
:10110C00FB68DBB21A464021354800F040FE63E034
:10111C00FB68DBB21A460121314800F038FEFB684F
:10112C00DBB21A4602212E4800F031FEFB68DBB21E
:10113C001A4604212A4800F02AFEFB68DBB21A4644
:10114C000821274800F023FEBB68DBB21A461021A9
:10115C00234800F01CFEFB68DBB21A462021204815
:10116C0000F015FEFB68DBB21A4640211C4800F06B
:10117C000EFE31E0BB68DBB21A460121184800F0C4
:10118C0006FEBB68DBB21A460221154800F0FFFDD3
:10119C00BB68DBB21A460421114800F0F8FDBB68AD
:1011AC00DBB21A4608210E4800F0F1FDBB68DBB239
:1011BC001A4610210A4800F0EAFDBB68DBB21A4659
:1011CC002021074800F0E3FDBB68DBB21A46402142
:1011DC00034800F0DCFD00BF00BF1037BD4680BDEA
:1011EC00000C014080B582B000AF01237B6000236E
:1011FC003B60434B1B68002B02D0012B39D07BE0AA
:10120C007B68DBB21A4680213E4800F0C0FD7B684B
:10121C00DBB21A464FF480713A4800F0B8FD3B68D7
:10122C00DBB21A464FF40071364800F0B0FD3B6853
:10123C00DBB21A464FF48061324800F0A8FD324B05
:10124C001B68324A82FB03129210DB17D31A184622
:10125C00FFF7DEFA2C4B5B682C4A82FB03129210D0
:10126C00DB17D31A1846FFF76BFD254B01221A60CA
:10127C0042E03B68DBB21A468021224800F087FD31
:10128C003B68DBB21A464FF480711E4800F07FFDBC
:10129C007B68DBB21A464FF400711A4800F077FDF8
:1012AC007B68DBB21A464FF48061164800F06FFD84
:1012BC00154B1A68154B83FB02139910D317C91AD7
:1012CC000B469B000B445B00D11A0846FFF7A0FAB3
:1012DC000D4B5A680D4B83FB02139910D317C91A87
:1012EC000B469B000B445B00D11A0846FFF728FD08
:1012FC00034B00221A6000BF00BF0837BD4680BDFB
:10130C0088000020000C01408000002067666666A3
:10131C0080B500AF7D4B1B78022B29D0022B6FDCE4
:10132C00002B49D0012B6BD100222021784800F0F2
:10133C002EFD00224021764800F029FD012280215B
:10134C00734800F024FD734B1B68013B714A13601A
:10135C00704B1B68704A13606E4B1B68002B51DC82
:10136C006A4B02221A706D4B1B686A4A136049E083
:10137C0000222021664800F00AFD01224021644829
:10138C0000F005FD00228021614800F000FD614B5A
:10139C001B68013B5F4A13605E4B1B685E4A13601F
:1013AC005C4B1B68002B2FDC584B00221A705C4BDB
:1013BC001B68584A136027E001222021544800F092
:1013CC00E6FC00224021524800F0E1FC0022802182
:1013DC004F4800F0DCFC4F4B1B68013B4D4A13603F
:1013EC004C4B1B684C4A13604A4B1B68002B0DDCA2
:1013FC00464B01221A704B4B1B68464A136005E0A2
:10140C0000BF04E000BF02E000BF00E000BF464B9D
:10141C001B78022B29D0022B6FDC002B49D0012B1F
:10142C006BD1002208213A4800F0B1FC00220421C3
:10143C00374800F0ACFC01220221354800F0A7FC33
:10144C003A4B1B68013B394A1360384B1B68324AD4
:10145C005360364B1B68002B51DC334B02221A7045
:10146C002E4B1B68314A136049E0002208212848A2
:10147C0000F08DFC01220421254800F088FC00229C
:10148C000221234800F083FC284B1B68013B274AB0
:10149C001360264B1B68204A5360244B1B68002B9F
:1014AC002FDC214B00221A701D4B1B681F4A136046
:1014BC0027E001220821164800F069FC00220421D3
:1014CC00134800F064FC00220221114800F05FFC7C
:1014DC00164B1B68013B154A1360144B1B680E4AD4
:1014EC005360124B1B68002B0DDC0F4B01221A7042
:1014FC000C4B1B680D4A136005E000BF04E000BFF5
:10150C0002E000BF00E000BF00BF80BD8C000020E7
:10151C00000801403C000020800000203400002026
:10152C003800002030000020400000204400002043
:10153C0080B485B000AF154B9B69144A43F001038E
:10154C009361124B9B6903F00103BB60BB680F4BAB
:10155C00DB690E4A43F08053D3610C4BDB6903F01B
:10156C0080537B607B680A4B5B68FB60FB6823F0F5
:10157C00E063FB60FB6843F08063FB60044AFB683C
:10158C00536000BF1437BD4680BC7047001002404A
:10159C000000014080B584B000AF78607B681B68A8
:1015AC00B3F1804F13D10C4BDB690B4A43F00103B1
:1015BC00D361094BDB6903F00103FB60FB6800227C
:1015CC0000211C2000F01BFA1C2000F034FA00BF94
:1015DC001037BD4680BD00BF0010024080B400AF84
:1015EC00FEE780B400AFFEE780B400AFFEE780B446
:1015FC0000AFFEE780B400AFFEE780B400AF00BFE1
:10160C00BD4680BC704780B400AF00BFBD4680BCF7
:10161C00704780B400AF00BFBD4680BC704780B53A
:10162C0000AF00F0F9F800BF80BD000080B500AF3E
:10163C00024801F055F800BF80BD00BFAC0000208F
:10164C0080B400AF00BFBD4680BC704780B400AF13
:10165C00194B1B68002B0BDD174B1B68013B164A03
:10166C001360154B1B68002B02DC144B01221A6013
:10167C00134B1B68002B0BDD114B1B68013B104AF5
:10168C0013600F4B1B68002B02DC0E4B01221A60FF
:10169C000D4B1B68002B0BDD0B4B1B68013B0A4AE7
:1016AC001360094B1B68002B02DC084B01221A60EB
:1016BC0000BFBD4680BC70479C00002090000020FD
:1016CC00A000002094000020A4000020980000201E
:1016DC0080B582B000AF7860FEF768FDFFF7B6FF0B
:1016EC0000BF0837BD4680BD80B483B000AF7860C2
:1016FC000A227B6893FBF2F3044A1360044B00222A
:10170C001A6000BF0C37BD4680BC70479C0000209F
:10171C009000002080B483B000AF78600A227B6810
:10172C0093FBF2F3044A1360044B00221A6000BFCF
:10173C000C37BD4680BC7047A000002094000020F0
:10174C00FFF77EFF0B480C490C4A002302E0D458EB
:10175C00C4500433C4188C42F9D3094A094C0023F1
:10176C0001E013600432A242FBD301F005FBFEF74B
:10177C0025FF70470000002054000020202E000898
:10178C0054000020F8000020FEE7000080B500AFF8
:10179C00084B1B68074A43F010031360032000F04A
:1017AC0023F90F2000F008F8FFF7C2FE00231846BB
:1017BC0080BD00BF0020024080B582B000AF7860D1
:1017CC00124B1A68124B1B7819464FF47A73B3FB01
:1017DC00F1F3B2FBF3F3184600F03BF90346002B90
:1017EC0001D001230EE07B680F2B0AD80022796808
:1017FC004FF0FF3000F003F9064A7B6813600023BA
:10180C0000E0012318460837BD4680BD4800002083
:10181C00500000204C00002080B400AF054B1B781A
:10182C001A46054B1B681344034A136000BFBD46A0
:10183C0080BC704750000020F400002080B400AF42
:10184C00024B1B681846BD4680BC7047F400002054
:10185C0080B485B000AF78607B6803F00703FB6051
:10186C000C4BDB68BB60BA684FF6FF031340BB60E0
:10187C00FB681A02BB68134343F0BF6343F40033A5
:10188C00BB60044ABB68D36000BF1437BD4680BC44
:10189C00704700BF00ED00E080B400AF044BDB6884
:1018AC001B0A03F007031846BD4680BC704700BFF7
:1018BC0000ED00E080B483B000AF0346FB7197F9F4
:1018CC000730002B0BDBFB7903F01F02064997F95D
:1018DC0007305B09012000FA02F241F8232000BF17
:1018EC000C37BD4680BC704700E100E080B483B08B
:1018FC0000AF03463960FB7197F90730002B0ADB08
:10190C003B68DAB20C4997F907301201D2B20B449A
:10191C0083F800230AE03B68DAB20849FB7903F04C
:10192C000F03043B1201D2B20B441A7600BF0C37E2
:10193C00BD4680BC704700BF00E100E000ED00E058
:10194C0080B489B000AFF860B9607A60FB6803F0CE
:10195C000703FB61FB69C3F10703042B28BF0423B6
:10196C00BB61FB690433062B02D9FB69033B00E026
:10197C0000237B614FF0FF32BB6902FA03F3DA43B9
:10198C00BB681A407B699A404FF0FF317B6901FAC2
:10199C0003F3D9437B680B40134318462437BD46E9
:1019AC0080BC704780B582B000AF78607B68013B2B
:1019BC00B3F1807F01D301230FE00A4A7B68013B1E
:1019CC0053600F214FF0FF30FFF790FF054B0022C3
:1019DC009A60044B07221A60002318460837BD464C
:1019EC0080BD00BF10E000E080B582B000AF786031
:1019FC007868FFF72DFF00BF0837BD4680BD80B566
:101A0C0086B000AF0346B9607A60FB7300237B613C
:101A1C00FFF742FF78617A68B9687869FFF790FF41
:101A2C00024697F90F3011461846FFF75FFF00BFCB
:101A3C001837BD4680BD80B582B000AF0346FB7140
:101A4C0097F907301846FFF735FF00BF0837BD463A
:101A5C0080BD80B582B000AF78607868FFF7A2FFD8
:101A6C00034618460837BD4680BD000080B48BB0D5
:101A7C0000AF7860396000237B6200233B6248E151
:101A8C0001227B6A02FA03F3FB613B681B68FA696B
:101A9C001340BB61BA69FB699A4240F037813B68DD
:101AAC005B68A34A93425ED0A14A934275D8A14A7F
:101ABC00934258D09F4A93426FD89F4A934252D038
:101ACC009D4A934269D89D4A93424CD09B4A93427B
:101ADC0063D89B4A934246D0994A93425DD8122BC5
:101AEC002AD8122B59D801A252F823F0731B0008E4
:101AFC004D1B00085F1B0008A11B0008A71B00085A
:101B0C00A71B0008A71B0008A71B0008A71B0008A1
:101B1C00A71B0008A71B0008A71B0008A71B000891
:101B2C00A71B0008A71B0008A71B0008A71B000881
:101B3C00551B0008691B0008824A934213D02CE005
:101B4C003B68DB683B6229E03B68DB6804333B6243
:101B5C0024E03B68DB6808333B621FE03B68DB68D2
:101B6C000C333B621AE03B689B68002B02D10423C8
:101B7C003B6213E03B689B68012B05D108233B6259
:101B8C007B68FA691A6109E008233B627B68FA6991
:101B9C005A6103E000233B6200E000BFBB69FF2BEE
:101BAC0001D87B6801E07B6804337B61BB69FF2B48
:101BBC0002D87B6A9B0002E07B6A083B9B003B617E
:101BCC007B691A680F213B6901FA03F3DB431A4066
:101BDC00396A3B6901FA03F31A437B691A603B6863
:101BEC005B6803F08053002B00F09080564B9B6990
:101BFC00554A43F001039361534B9B6903F0010376
:101C0C00BB60BB68514A7B6A9B08023352F8233095
:101C1C00FB607B6A03F003039B000F2202FA03F3C1
:101C2C00DB43FA681340FB607B68494A93420DD052
:101C3C007B68484A934207D07B68474A934201D15C
:101C4C00022304E0032302E0012300E000237A6A6C
:101C5C0002F0030292009340FA681343FB603B4985
:101C6C007B6A9B080233FA6841F823203B685B6867
:101C7C0003F48013002B06D0384B9A683749BB69A4
:101C8C0013438B6006E0354B9A68BB69DB433349E1
:101C9C0013408B603B685B6803F40013002B06D089
:101CAC002E4BDA682D49BB691343CB6006E02B4BF6
:101CBC00DA68BB69DB4329491340CB603B685B683E
:101CCC0003F40033002B06D0244B5A682349BB691C
:101CDC0013434B6006E0214B5A68BB69DB431F4939
:101CEC0013404B603B685B6803F48033002B06D0D9
:101CFC001A4B1A681949BB6913430B6006E0174B62
:101D0C001A68BB69DB43154913400B607B6A0133CE
:101D1C007B623B681A687B6A22FA03F3002B7FF420
:101D2C00AFAE00BF00BF2C37BD4680BC704700BFB4
:101D3C0000003210000031100000221000002110B1
:101D4C0000001210000011100010024000000140B1
:101D5C0000080140000C014000100140000401404B
:101D6C0080B485B000AF78600B467B807B689A6846
:101D7C007B881340002B02D00123FB7301E000236E
:101D8C00FB73FB7B18461437BD4680BC704780B490
:101D9C0083B000AF78600B467B8013467B707B78FA
:101DAC00002B03D07A887B681A6103E07B881A04C5
:101DBC007B681A6100BF0C37BD4680BC704780B48D
:101DCC0085B000AF78600B467B807B68DB68FB607E
:101DDC007A88FB6813401A04FB68D9437B880B4054
:101DEC001A437B681A6100BF1437BD4680BC70472C
:101DFC0080B586B000AF78607B68002B01D10123E1
:101E0C006CE27B681B6803F00103002B00F08780F9
:101E1C00924B5B6803F00C03042B0CD08F4B5B686C
:101E2C0003F00C03082B12D18C4B5B6803F480334A
:101E3C00B3F5803F0BD1894B1B6803F40033002BA7
:101E4C006CD07B685B68002B68D1012346E27B6811
:101E5C005B68B3F5803F06D1804B1B687F4A43F427
:101E6C00803313602EE07B685B68002B0CD17B4BBE
:101E7C001B687A4A23F480331360784B1B68774ACB
:101E8C0023F4802313601DE07B685B68B3F5A02FFF
:101E9C000CD1724B1B68714A43F4802313606F4B57
:101EAC001B686E4A43F4803313600BE06B4B1B686A
:101EBC006A4A23F480331360684B1B68674A23F427
:101ECC00802313607B685B68002B13D0FFF7B6FC94
:101EDC00386108E0FFF7B2FC02463B69D31A642B69
:101EEC0001D90323FAE15D4B1B6803F40033002B8B
:101EFC00F0D014E0FFF7A2FC386108E0FFF79EFC7D
:101F0C0002463B69D31A642B01D90323E6E1534BF8
:101F1C001B6803F40033002BF0D100E000BF7B689A
:101F2C001B6803F00203002B63D04C4B5B6803F07F
:101F3C000C03002B0BD0494B5B6803F00C03082BF4
:101F4C001CD1464B5B6803F48033002B16D1434BFA
:101F5C001B6803F00203002B05D07B681B69012B67
:101F6C0001D00123BAE13D4B1B6823F0F8027B68DA
:101F7C005B69DB00394913430B603AE07B681B69F2
:101F8C00002B20D0364B01221A60FFF757FC38612A
:101F9C0008E0FFF753FC02463B69D31A022B01D928
:101FAC0003239BE12D4B1B6803F00203002BF0D0A5
:101FBC002A4B1B6823F0F8027B685B69DB0027491E
:101FCC0013430B6015E0264B00221A60FFF736FC1A
:101FDC00386108E0FFF732FC02463B69D31A022B4A
:101FEC0001D903237AE11D4B1B6803F00203002B7C
:101FFC00F0D17B681B6803F00803002B3AD07B6898
:10200C009B69002B19D0174B01221A60FFF716FCA5
:10201C00386108E0FFF712FC02463B69D31A022B29
:10202C0001D903235AE10D4B5B6A03F00203002B29
:10203C00F0D0012000F09AFA1CE00A4B00221A6042
:10204C00FFF7FCFB38610FE0FFF7F8FB02463B693A
:10205C00D31A022B08D9032340E100BF0010024021
:10206C0000004242800442429E4B5B6A03F0020332
:10207C00002BE9D17B681B6803F00403002B00F0F4
:10208C00A6800023FB75974BDB6903F08053002B74
:10209C000DD1944BDB69934A43F08053D361914B40
:1020AC00DB6903F08053BB60BB680123FB758E4B6F
:1020BC001B6803F48073002B18D18B4B1B688A4A66
:1020CC0043F480731360FFF7B9FB386108E0FFF746
:1020DC00B5FB02463B69D31A642B01D90323FDE0FF
:1020EC00814B1B6803F48073002BF0D07B68DB689A
:1020FC00012B06D17B4B1B6A7A4A43F00103136216
:10210C002DE07B68DB68002B0CD1764B1B6A754A83
:10211C0023F001031362734B1B6A724A23F004030E
:10212C0013621CE07B68DB68052B0CD16D4B1B6AC2
:10213C006C4A43F0040313626A4B1B6A694A43F00E
:10214C00010313620BE0674B1B6A664A23F0010321
:10215C001362644B1B6A634A23F0040313627B68AB
:10216C00DB68002B15D0FFF769FB38610AE0FFF73D
:10217C0065FB02463B69D31A41F28832934201D97E
:10218C000323ABE0574B1B6A03F00203002BEED08A
:10219C0014E0FFF753FB38610AE0FFF74FFB0246F0
:1021AC003B69D31A41F28832934201D9032395E05B
:1021BC004C4B1B6A03F00203002BEED1FB7D012B71
:1021CC0005D1484BDB69474A23F08053D3617B68C8
:1021DC00DB69002B00F08180424B5B6803F00C0341
:1021EC00082B61D07B68DB69022B46D13F4B002268
:1021FC001A60FFF723FB386108E0FFF71FFB02466C
:10220C003B69D31A022B01D9032367E0354B1B68BA
:10221C0003F00073002BF0D17B681B6AB3F5803F91
:10222C0008D1304B5B6823F400327B689B682D49E6
:10223C0013434B602B4B5B6823F474127B68196A55
:10224C007B685B6A0B43274913434B60274B012286
:10225C001A60FFF7F3FA386108E0FFF7EFFA02466D
:10226C003B69D31A022B01D9032337E01D4B1B68A2
:10227C0003F00073002BF0D02FE01C4B00221A60EF
:10228C00FFF7DCFA386108E0FFF7D8FA02463B6941
:10229C00D31A022B01D9032320E0124B1B6803F045
:1022AC000073002BF0D118E07B68DB69012B01D1A6
:1022BC00012313E00B4B5B68FB60FB6803F480327B
:1022CC007B681B6A9A4206D1FB6803F470127B6828
:1022DC005B6A9A4201D0012300E0002318461837AC
:1022EC00BD4680BD001002400070004060004242BC
:1022FC0080B584B000AF786039607B68002B01D169
:10230C000123D0E06A4B1B6803F007033A689A423A
:10231C0010D9674B1B6823F0070265493B681343D0
:10232C000B60634B1B6803F007033A689A4201D0B9
:10233C000123B8E07B681B6803F00203002B20D05C
:10234C007B681B6803F00403002B05D0594B5B68BA
:10235C00584A43F4E06353607B681B6803F008033E
:10236C00002B05D0534B5B68524A43F460535360C7
:10237C00504B5B6823F0F0027B689B684D4913431C
:10238C004B607B681B6803F00103002B40D07B681B
:10239C005B68012B07D1474B1B6803F40033002B00
:1023AC0015D101237FE07B685B68022B07D1414B81
:1023BC001B6803F00073002B09D1012373E03D4B24
:1023CC001B6803F00203002B01D101236BE0394B96
:1023DC005B6823F003027B685B68364913434B60F0
:1023EC00FFF72CFAF8600AE0FFF728FA0246FB68C0
:1023FC00D31A41F28832934201D9032353E02D4B77
:10240C005B6803F00C027B685B689B009A42EBD123
:10241C00274B1B6803F007033A689A4210D2244BEF
:10242C001B6823F0070222493B6813430B60204BC7
:10243C001B6803F007033A689A4201D0012332E08B
:10244C007B681B6803F00403002B08D0194B5B68F6
:10245C0023F4E0627B68DB68164913434B607B68AE
:10246C001B6803F00803002B09D0124B5B6823F4A4
:10247C0060527B681B69DB000E4913434B6000F014
:10248C0021F802460B4B5B681B0903F00F030A494A
:10249C00CB5C22FA03F3094A1360094B1B681846FC
:1024AC00FFF78AF9002318461037BD4680BD00BFE0
:1024BC000020024000100240F42D000848000020CB
:1024CC004C00002080B487B000AF0023FB600023D9
:1024DC00BB6000237B6100237B6000233B611E4BB0
:1024EC005B68FB60FB6803F00C03042B02D0082B29
:1024FC0003D027E0194B3B6127E0FB689B0C03F0F2
:10250C000F03174AD35C7B60FB6803F48033002B0A
:10251C0010D0114B5B685B0C03F00103114AD35CC8
:10252C00BB607B680D4A02FB03F2BB68B2FBF3F3A2
:10253C007B6104E07B680C4A02FB03F37B617B69E3
:10254C003B6102E0054B3B6100BF3B6918461C3701
:10255C00BD4680BC704700BF0010024000127A00DC
:10256C00042E0008142E000800093D0080B485B02C
:10257C0000AF78600A4B1B680A4AA2FB03235B0A74
:10258C007A6802FB03F3FB6000BFFB685A1EFA601B
:10259C00002BF9D100BF00BF1437BD4680BC70477B
:1025AC0048000020D34D621080B582B000AF786037
:1025BC007B68002B01D1012341E07B6893F83D300F
:1025CC00DBB2002B06D17B68002283F83C207868B4
:1025DC00FEF7E0FF7B68022283F83D207B681A68D7
:1025EC007B6804331946104600F06EFA7B680122B2
:1025FC0083F846207B68012283F83E207B68012209
:10260C0083F83F207B68012283F840207B680122FD
:10261C0083F841207B68012283F842207B680122E9
:10262C0083F843207B68012283F844207B680122D5
:10263C0083F845207B68012283F83D20002318464F
:10264C000837BD4680BD000080B485B000AF78600F
:10265C007B6893F83D30DBB2012B01D0012335E0D0
:10266C007B68022283F83D207B681B68DA687B68F4
:10267C001B6842F00102DA607B681B68164A9342C1
:10268C0009D07B681B68B3F1804F04D07B681B6852
:10269C00124A934211D17B681B689B6803F00703B5
:1026AC00FB60FB68062B10D07B681B681A687B6884
:1026BC001B6842F001021A6007E07B681B681A680D
:1026CC007B681B6842F001021A600023184614371D
:1026DC00BD4680BC704700BF002C01400004004088
:1026EC0080B582B000AF78607B681B681B6903F013
:1026FC000203022B22D17B681B68DB6803F0020308
:10270C00022B1BD17B681B686FF002021A617B687D
:10271C0001221A777B681B689B6903F00303002B6B
:10272C0003D0786800F0B4F905E0786800F0A7F9F8
:10273C00786800F0B6F97B6800221A777B681B6812
:10274C001B6903F00403042B22D17B681B68DB6834
:10275C0003F00403042B1BD17B681B686FF004028D
:10276C001A617B6802221A777B681B689B6903F4E9
:10277C004073002B03D0786800F08AF905E0786884
:10278C0000F07DF9786800F08CF97B6800221A77EC
:10279C007B681B681B6903F00803082B22D17B683C
:1027AC001B68DB6803F00803082B1BD17B681B68D4
:1027BC006FF008021A617B6804221A777B681B6829
:1027CC00DB6903F00303002B03D0786800F060F999
:1027DC0005E0786800F053F9786800F062F97B68DE
:1027EC0000221A777B681B681B6903F01003102BFF
:1027FC0022D17B681B68DB6803F01003102B1BD104
:10280C007B681B686FF010021A617B6808221A77CC
:10281C007B681B68DB6903F44073002B03D078687A
:10282C0000F036F905E0786800F029F9786800F0D6
:10283C0038F97B6800221A777B681B681B6903F0E8
:10284C000103012B0ED17B681B68DB6803F00103CD
:10285C00012B07D17B681B686FF001021A61786845
:10286C00FEF736FF7B681B681B6903F08003802B27
:10287C000ED17B681B68DB6803F08003802B07D1CB
:10288C007B681B686FF080021A61786800F06BFA45
:10289C007B681B681B6903F04003402B0ED17B68DF
:1028AC001B68DB6803F04003402B07D17B681B6877
:1028BC006FF040021A61786800F0FCF87B681B68C6
:1028CC001B6903F02003202B0ED17B681B68DB688F
:1028DC0003F02003202B07D17B681B686FF02002CC
:1028EC001A61786800F036FA00BF0837BD4680BD23
:1028FC0080B584B000AF786039600023FB737B68CF
:10290C0093F83C30012B01D10223B4E07B68012207
:10291C0083F83C207B68022283F83D207B681B688F
:10292C009B68BB60BB6823F07703BB60BB6823F478
:10293C007F43BB607B681B68BA689A603B681B6806
:10294C00B3F5005F3ED0B3F5005F00F28780B3F5BE
:10295C00805F00F08680B3F5805F7FD8702B1AD033
:10296C00702B7BD8602B50D0602B77D8502B3CD061
:10297C00502B73D8402B58D0402B6FD8302B64D0B1
:10298C00302B6BD8202B60D0202B67D8002B5CD041
:10299C00102B5AD062E07B6818683B6899683B68DA
:1029AC005A683B68DB6800F05EF97B681B689B68C3
:1029BC00BB60BB6843F07703BB607B681B68BA687D
:1029CC009A604FE07B6818683B6899683B685A6866
:1029DC003B68DB6800F047F97B681B689A687B688A
:1029EC001B6842F480429A603CE07B6818683B6844
:1029FC0059683B68DB681A4600F0BEF87B681B68B8
:102A0C005021184600F015F92CE07B6818683B68DB
:102A1C0059683B68DB681A4600F0DCF87B681B6879
:102A2C006021184600F005F91CE07B6818683B68CB
:102A3C0059683B68DB681A4600F09EF87B681B6897
:102A4C004021184600F0F5F80CE07B681A683B68EA
:102A5C001B681946104600F0ECF803E00123FB73E9
:102A6C0000E000BF7B68012283F83D207B680022D8
:102A7C0083F83C20FB7B18461037BD4680BD80B4E4
:102A8C0083B000AF786000BF0C37BD4680BC704788
:102A9C0080B483B000AF786000BF0C37BD4680BCFB
:102AAC00704780B483B000AF786000BF0C37BD4670
:102ABC0080BC704780B483B000AF786000BF0C3727
:102ACC00BD4680BC7047000080B485B000AF786014
:102ADC0039607B681B68FB607B68254A934207D092
:102AEC007B68B3F1804F03D07B68224A934208D1B4
:102AFC00FB6823F07003FB603B685B68FA68134368
:102B0C00FB607B681A4A934207D07B68B3F1804F15
:102B1C0003D07B68174A934208D1FB6823F44073B7
:102B2C00FB603B68DB68FA681343FB60FB6823F0CF
:102B3C0080023B685B691343FB607B68FA681A6030
:102B4C003B689A687B68DA623B681A687B689A62B1
:102B5C007B68074A934203D13B681A697B681A6306
:102B6C007B6801225A6100BF1437BD4680BC704798
:102B7C00002C01400004004080B487B000AFF86026
:102B8C00B9607A60FB681B6A7B61FB681B6A23F087
:102B9C000102FB681A62FB689B693B613B6923F08D
:102BAC00F0033B617B681B013A6913433B617B6912
:102BBC0023F00A037B617A69BB6813437B61FB6872
:102BCC003A699A61FB687A691A6200BF1C37BD4684
:102BDC0080BC704780B487B000AFF860B9607A6091
:102BEC00FB681B6A7B61FB681B6A23F01002FB68A5
:102BFC001A62FB689B693B613B6923F470433B6140
:102C0C007B681B033A6913433B617B6923F0A00388
:102C1C007B61BB681B017A6913437B61FB683A6972
:102C2C009A61FB687A691A6200BF1C37BD4680BC8A
:102C3C00704780B485B000AF786039607B689B6862
:102C4C00FB60FB6823F07003FB603A68FB6813437E
:102C5C0043F00703FB607B68FA689A6000BF143787
:102C6C00BD4680BC704780B487B000AFF860B960D7
:102C7C007A603B60FB689B687B617B6923F47F43D4
:102C8C007B613B681A027B681A43BB6813437A6901
:102C9C0013437B61FB687A699A6000BF1C37BD46A1
:102CAC0080BC704780B485B000AF786039607B68B9
:102CBC0093F83C30012B01D1022341E07B680122C7
:102CCC0083F83C207B68022283F83D207B681B68DC
:102CDC005B68FB607B681B689B68BB60FB6823F0D0
:102CEC007003FB603B681B68FA681343FB607B68EE
:102CFC001B68FA685A607B681B68144A934209D0B7
:102D0C007B681B68B3F1804F04D07B681B68104A4A
:102D1C0093420CD1BB6823F08003BB603B685B68BB
:102D2C00BA681343BB607B681B68BA689A607B689F
:102D3C00012283F83D207B68002283F83C2000238D
:102D4C0018461437BD4680BC704700BF002C0140AC
:102D5C000004004080B483B000AF786000BF0C3733
:102D6C00BD4680BC704780B483B000AF786000BFB4
:102D7C000C37BD4680BC704770B500260C4D0D4C11
:102D8C00641BA410A64209D100F022F800260A4DBB
:102D9C000A4C641BA410A64205D170BD55F8043B27
:102DAC0098470136EEE755F8043B98470136F2E7B1
:102DBC00182E0008182E0008182E00081C2E0008CB
:102DCC0003460244934200D1704703F8011BF9E714
:102DDC00F8B500BFF8BC08BC9E467047F8B500BFFC
:082DEC00F8BC08BC9E467047CC
:102DF40000000000000000000102030406070809A7
:102E040002030405060708090A0B0C0D0E0F101027
:042E140001020000B7
:042E1800310100087C
:042E1C000D0100089C
:102E2000010000000100000001000000010000009E
:102E3000010000000100000001000000010000008E
:102E4000010000000100000001000000010000007E
:102E50000300000002000000050000000500000063
:102E600001000000030000000024F4001000000036
:042E7000010000005D
:040000050800174D8B
:00000001FF
